S02B0000483A2F4A756E696F72596561722F454E47523330342F535730352F50617274332F6E696F735F6465E2
S113000084014003445F80033400C0031410DE7B8A
S113001034000005141020A5340080051450A0B548
S11300203400C0051440E0BD34004006140060CE26
S113003034018002340180523502C0B3350380B3E9
S1130040350140B3350000B03A881300060A0000B9
S11300503A8813003700C0B44C00C09C1E010098BD
S113006006050000350000B026F9BF4A350040A25D
S11300704400404A06F73F00370300BE0C0200C6A6
S11300801E0100C006F33F00350300B8370000CE60
S1130090350300B6350140B33A88310006F13F001C
S9030000FC
