S02B0000483A2F4A756E696F72596561722F454E47523330342F535730362F50617274492F646F536F6D6557EE
S113000004FEFFDE150140DC150000DC340840046A
S11300104481728C3A882100440000841EFE7F844F
S1130020170140DC170000DC0402C0DE3A2800F8A7
S11300300624000000000000000000000000000092
S113004000000000000000000000000000000000AC
S113005004FFFFDE350040DA3A313100260100C0EA
S113006004FF7FEF3A3131004C0000C61E0100C08E
S11300700633000034000006145020C6350000C0CA
S113008034000006145B00C6170040C24400404A16
S113009034010006340100C63601004E0627000074
S11300A034000006141020C6350040C23400000697
S11300B0145B00C6150040C2370040DA0401C0DEFC
S11300C03A0880EF34000005141020A534008005A0
S11300D01450A0B53400C0051440E0BD34004006FF
S11300E0140060CE34018002340180523400800553
S11300F01450A0B534000005141020A534004003AA
S1130100D401406B445F80033400C0031410DE7BD1
S11301103502C0B3350380B3350140B3350000B0B8
S1130120FA303100540000C6FA7001C03A30310090
S1130130540000C63A7001C0060100003A8813005A
S1130140370340BD0C0240AD1E0100A806FA3F0073
S1130150350300B8370040CD350340B5350140B311
S10F01603A882B0006CE3F0006FF3F004B
S9030030CC
